{
  "contractName": "AllElections",
  "abi": [
    {
      "inputs": [
        {
          "internalType": "uint256",
          "name": "",
          "type": "uint256"
        }
      ],
      "name": "allElections",
      "outputs": [
        {
          "internalType": "address",
          "name": "",
          "type": "address"
        }
      ],
      "stateMutability": "view",
      "type": "function",
      "constant": true
    },
    {
      "inputs": [],
      "name": "firstElection",
      "outputs": [
        {
          "internalType": "uint256",
          "name": "",
          "type": "uint256"
        }
      ],
      "stateMutability": "view",
      "type": "function",
      "constant": true
    },
    {
      "inputs": [
        {
          "internalType": "string[]",
          "name": "electionAttributes",
          "type": "string[]"
        },
        {
          "internalType": "string[]",
          "name": "candidates",
          "type": "string[]"
        }
      ],
      "name": "createNewElection",
      "outputs": [],
      "stateMutability": "nonpayable",
      "type": "function"
    }
  ],
  "bytecode": "0x60806040526000805534801561001457600080fd5b5061173d806100246000396000f3fe60806040523480156200001157600080fd5b5060043610620000465760003560e01c806348395f73146200004b5780639fa1a657146200006b578063b4021093146200008d575b600080fd5b6200006960048036038101906200006391906200031e565b620000c3565b005b6200007562000173565b60405162000084919062000527565b60405180910390f35b620000ab6004803603810190620000a59190620003a3565b62000179565b604051620000ba9190620004cf565b60405180910390f35b60008282604051620000d590620001ac565b620000e2929190620004ec565b604051809103906000f080158015620000ff573d6000803e3d6000fd5b50905080600160008054815260200190815260200160002060006101000a81548173ffffffffffffffffffffffffffffffffffffffff021916908373ffffffffffffffffffffffffffffffffffffffff1602179055506000808154809291906200016990620006e0565b9190505550505050565b60005481565b60016020528060005260406000206000915054906101000a900473ffffffffffffffffffffffffffffffffffffffff1681565b610f3780620007d183390190565b6000620001d1620001cb846200056d565b62000544565b90508083825260208201905082856020860282011115620001f757620001f662000791565b5b60005b858110156200024c57813567ffffffffffffffff8111156200022157620002206200078c565b5b808601620002308982620002d4565b85526020850194506020840193505050600181019050620001fa565b5050509392505050565b60006200026d62000267846200059c565b62000544565b9050828152602081018484840111156200028c576200028b62000796565b5b6200029984828562000665565b509392505050565b600082601f830112620002b957620002b86200078c565b5b8135620002cb848260208601620001ba565b91505092915050565b600082601f830112620002ec57620002eb6200078c565b5b8135620002fe84826020860162000256565b91505092915050565b6000813590506200031881620007b6565b92915050565b60008060408385031215620003385762000337620007a0565b5b600083013567ffffffffffffffff8111156200035957620003586200079b565b5b6200036785828601620002a1565b925050602083013567ffffffffffffffff8111156200038b576200038a6200079b565b5b6200039985828601620002a1565b9150509250929050565b600060208284031215620003bc57620003bb620007a0565b5b6000620003cc8482850162000307565b91505092915050565b6000620003e383836200047d565b905092915050565b620003f68162000627565b82525050565b60006200040982620005e2565b62000415818562000605565b9350836020820285016200042985620005d2565b8060005b858110156200046b5784840389528151620004498582620003d5565b94506200045683620005f8565b925060208a019950506001810190506200042d565b50829750879550505050505092915050565b60006200048a82620005ed565b62000496818562000616565b9350620004a881856020860162000674565b620004b381620007a5565b840191505092915050565b620004c9816200065b565b82525050565b6000602082019050620004e66000830184620003eb565b92915050565b60006040820190508181036000830152620005088185620003fc565b905081810360208301526200051e8184620003fc565b90509392505050565b60006020820190506200053e6000830184620004be565b92915050565b60006200055062000563565b90506200055e8282620006aa565b919050565b6000604051905090565b600067ffffffffffffffff8211156200058b576200058a6200075d565b5b602082029050602081019050919050565b600067ffffffffffffffff821115620005ba57620005b96200075d565b5b620005c582620007a5565b9050602081019050919050565b6000819050602082019050919050565b600081519050919050565b600081519050919050565b6000602082019050919050565b600082825260208201905092915050565b600082825260208201905092915050565b600062000634826200063b565b9050919050565b600073ffffffffffffffffffffffffffffffffffffffff82169050919050565b6000819050919050565b82818337600083830152505050565b60005b838110156200069457808201518184015260208101905062000677565b83811115620006a4576000848401525b50505050565b620006b582620007a5565b810181811067ffffffffffffffff82111715620006d757620006d66200075d565b5b80604052505050565b6000620006ed826200065b565b91507fffffffffffffffffffffffffffffffffffffffffffffffffffffffffffffffff8214156200072357620007226200072e565b5b600182019050919050565b7f4e487b7100000000000000000000000000000000000000000000000000000000600052601160045260246000fd5b7f4e487b7100000000000000000000000000000000000000000000000000000000600052604160045260246000fd5b600080fd5b600080fd5b600080fd5b600080fd5b600080fd5b6000601f19601f8301169050919050565b620007c1816200065b565b8114620007cd57600080fd5b5056fe608060405260006002553480156200001657600080fd5b5060405162000f3738038062000f3783398181016040528101906200003c9190620003f1565b816000815181106200005357620000526200065c565b5b60200260200101516000908051906020019062000072929190620001f4565b50816001815181106200008a57620000896200065c565b5b602002602001015160019080519060200190620000a9929190620001f4565b50604051806060016040528082600081518110620000cc57620000cb6200065c565b5b6020026020010151815260200160008152602001600254815250600360006002548152602001908152602001600020600082015181600001908051906020019062000119929190620001f4565b506020820151816001015560408201518160020155905050600260008154809291906200014690620005b0565b91905055506040518060600160405280826001815181106200016d576200016c6200065c565b5b60200260200101518152602001600081526020016002548152506003600060025481526020019081526020016000206000820151816000019080519060200190620001ba929190620001f4565b50602082015181600101556040820151816002015590505060026000815480929190620001e790620005b0565b91905055505050620006e4565b828054620002029062000544565b90600052602060002090601f01602090048101928262000226576000855562000272565b82601f106200024157805160ff191683800117855562000272565b8280016001018555821562000272579182015b828111156200027157825182559160200191906001019062000254565b5b50905062000281919062000285565b5090565b5b80821115620002a057600081600090555060010162000286565b5090565b6000620002bb620002b5846200049f565b62000476565b90508083825260208201905082856020860282011115620002e157620002e0620006bf565b5b60005b858110156200033657815167ffffffffffffffff8111156200030b576200030a620006ba565b5b8086016200031a8982620003be565b85526020850194506020840193505050600181019050620002e4565b5050509392505050565b6000620003576200035184620004ce565b62000476565b905082815260208101848484011115620003765762000375620006c4565b5b620003838482856200050e565b509392505050565b600082601f830112620003a357620003a2620006ba565b5b8151620003b5848260208601620002a4565b91505092915050565b600082601f830112620003d657620003d5620006ba565b5b8151620003e884826020860162000340565b91505092915050565b600080604083850312156200040b576200040a620006ce565b5b600083015167ffffffffffffffff8111156200042c576200042b620006c9565b5b6200043a858286016200038b565b925050602083015167ffffffffffffffff8111156200045e576200045d620006c9565b5b6200046c858286016200038b565b9150509250929050565b60006200048262000495565b90506200049082826200057a565b919050565b6000604051905090565b600067ffffffffffffffff821115620004bd57620004bc6200068b565b5b602082029050602081019050919050565b600067ffffffffffffffff821115620004ec57620004eb6200068b565b5b620004f782620006d3565b9050602081019050919050565b6000819050919050565b60005b838110156200052e57808201518184015260208101905062000511565b838111156200053e576000848401525b50505050565b600060028204905060018216806200055d57607f821691505b602082108114156200057457620005736200062d565b5b50919050565b6200058582620006d3565b810181811067ffffffffffffffff82111715620005a757620005a66200068b565b5b80604052505050565b6000620005bd8262000504565b91507fffffffffffffffffffffffffffffffffffffffffffffffffffffffffffffffff821415620005f357620005f2620005fe565b5b600182019050919050565b7f4e487b7100000000000000000000000000000000000000000000000000000000600052601160045260246000fd5b7f4e487b7100000000000000000000000000000000000000000000000000000000600052602260045260246000fd5b7f4e487b7100000000000000000000000000000000000000000000000000000000600052603260045260246000fd5b7f4e487b7100000000000000000000000000000000000000000000000000000000600052604160045260246000fd5b600080fd5b600080fd5b600080fd5b600080fd5b600080fd5b6000601f19601f8301169050919050565b61084380620006f46000396000f3fe608060405234801561001057600080fd5b50600436106100625760003560e01c80630121b93f14610067578063290e92121461008357806349a2b603146100b557806385e8e7a7146100d3578063e22e11c9146100f1578063fdedaa8a1461010f575b600080fd5b610081600480360381019061007c91906104b8565b610140565b005b61009d600480360381019061009891906104b8565b61025c565b6040516100ac939291906105aa565b60405180910390f35b6100bd61030e565b6040516100ca9190610588565b60405180910390f35b6100db61039c565b6040516100e89190610588565b60405180910390f35b6100f961042a565b6040516101069190610608565b60405180910390f35b6101296004803603810190610124919061048b565b610430565b60405161013792919061055f565b60405180910390f35b600460003373ffffffffffffffffffffffffffffffffffffffff1673ffffffffffffffffffffffffffffffffffffffff16815260200190815260200160002060000160009054906101000a900460ff16156101d0576040517f08c379a00000000000000000000000000000000000000000000000000000000081526004016101c7906105e8565b60405180910390fd5b6001600460003373ffffffffffffffffffffffffffffffffffffffff1673ffffffffffffffffffffffffffffffffffffffff16815260200190815260200160002060000160006101000a81548160ff0219169083151502179055506001600360008381526020019081526020016000206001016000828254610252919061063f565b9250508190555050565b600360205280600052604060002060009150905080600001805461027f90610710565b80601f01602080910402602001604051908101604052809291908181526020018280546102ab90610710565b80156102f85780601f106102cd576101008083540402835291602001916102f8565b820191906000526020600020905b8154815290600101906020018083116102db57829003601f168201915b5050505050908060010154908060020154905083565b6001805461031b90610710565b80601f016020809104026020016040519081016040528092919081815260200182805461034790610710565b80156103945780601f1061036957610100808354040283529160200191610394565b820191906000526020600020905b81548152906001019060200180831161037757829003601f168201915b505050505081565b600080546103a990610710565b80601f01602080910402602001604051908101604052809291908181526020018280546103d590610710565b80156104225780601f106103f757610100808354040283529160200191610422565b820191906000526020600020905b81548152906001019060200180831161040557829003601f168201915b505050505081565b60025481565b60046020528060005260406000206000915090508060000160009054906101000a900460ff16908060010154905082565b600081359050610470816107df565b92915050565b600081359050610485816107f6565b92915050565b6000602082840312156104a1576104a06107a0565b5b60006104af84828501610461565b91505092915050565b6000602082840312156104ce576104cd6107a0565b5b60006104dc84828501610476565b91505092915050565b6104ee816106a7565b82525050565b60006104ff82610623565b610509818561062e565b93506105198185602086016106dd565b610522816107a5565b840191505092915050565b600061053a601e8361062e565b9150610545826107b6565b602082019050919050565b610559816106d3565b82525050565b600060408201905061057460008301856104e5565b6105816020830184610550565b9392505050565b600060208201905081810360008301526105a281846104f4565b905092915050565b600060608201905081810360008301526105c481866104f4565b90506105d36020830185610550565b6105e06040830184610550565b949350505050565b600060208201905081810360008301526106018161052d565b9050919050565b600060208201905061061d6000830184610550565b92915050565b600081519050919050565b600082825260208201905092915050565b600061064a826106d3565b9150610655836106d3565b9250827fffffffffffffffffffffffffffffffffffffffffffffffffffffffffffffffff0382111561068a57610689610742565b5b828201905092915050565b60006106a0826106b3565b9050919050565b60008115159050919050565b600073ffffffffffffffffffffffffffffffffffffffff82169050919050565b6000819050919050565b60005b838110156106fb5780820151818401526020810190506106e0565b8381111561070a576000848401525b50505050565b6000600282049050600182168061072857607f821691505b6020821081141561073c5761073b610771565b5b50919050565b7f4e487b7100000000000000000000000000000000000000000000000000000000600052601160045260246000fd5b7f4e487b7100000000000000000000000000000000000000000000000000000000600052602260045260246000fd5b600080fd5b6000601f19601f8301169050919050565b7f566f74657220766f74656420666f72207468697320656c656374696f6e210000600082015250565b6107e881610695565b81146107f357600080fd5b50565b6107ff816106d3565b811461080a57600080fd5b5056fea2646970667358221220fd7283a283445124e0745a2a2a2f700278678340b443861a07b43a87d97b781064736f6c63430008070033a26469706673582212201f38f3ec61061bbc83a2bf65665706664b769d6290cbd84328d2cd2464abbd0964736f6c63430008070033",
  "immutableReferences": {},
  "source": "// SPDX-License-Identifier: UNLICENSED\r\npragma solidity >=0.7.0 <0.9.0;\r\n\r\nimport './Election.sol';\r\ncontract AllElections{\r\n    uint public firstElection = 0;\r\n    mapping (uint => address) public allElections;\r\n\r\n    function createNewElection(string[] memory electionAttributes, string[] memory candidates) public{\r\n        Election newElection = new Election(electionAttributes, candidates);\r\n        allElections[firstElection] = address(newElection);\r\n        firstElection++;\r\n    }\r\n}",
  "sourcePath": "C:\\Users\\berka\\VoterBlock\\contracts\\AllElections.sol",
  "compiler": {
    "name": "solc",
    "version": "0.8.7+commit.e28d00a7.Emscripten.clang"
  },
  "schemaVersion": "3.4.7",
  "updatedAt": "2022-06-23T22:03:07.606Z",
  "networkType": "ethereum",
  "devdoc": {
    "kind": "dev",
    "methods": {},
    "version": 1
  },
  "userdoc": {
    "kind": "user",
    "methods": {},
    "version": 1
  }
}