{
  "contractName": "Election",
  "abi": [
    {
      "inputs": [
        {
          "internalType": "string[]",
          "name": "electionAttributes",
          "type": "string[]"
        },
        {
          "internalType": "string[]",
          "name": "candidateAttributes",
          "type": "string[]"
        }
      ],
      "stateMutability": "nonpayable",
      "type": "constructor"
    },
    {
      "inputs": [
        {
          "internalType": "uint256",
          "name": "",
          "type": "uint256"
        }
      ],
      "name": "Candidates",
      "outputs": [
        {
          "internalType": "string",
          "name": "name",
          "type": "string"
        },
        {
          "internalType": "uint256",
          "name": "voteCount",
          "type": "uint256"
        },
        {
          "internalType": "uint256",
          "name": "candidateID",
          "type": "uint256"
        }
      ],
      "stateMutability": "view",
      "type": "function"
    },
    {
      "inputs": [
        {
          "internalType": "address",
          "name": "",
          "type": "address"
        }
      ],
      "name": "Voters",
      "outputs": [
        {
          "internalType": "bool",
          "name": "isVoted",
          "type": "bool"
        },
        {
          "internalType": "uint256",
          "name": "voterID",
          "type": "uint256"
        }
      ],
      "stateMutability": "view",
      "type": "function"
    },
    {
      "inputs": [],
      "name": "electionDescription",
      "outputs": [
        {
          "internalType": "string",
          "name": "",
          "type": "string"
        }
      ],
      "stateMutability": "view",
      "type": "function"
    },
    {
      "inputs": [],
      "name": "electionName",
      "outputs": [
        {
          "internalType": "string",
          "name": "",
          "type": "string"
        }
      ],
      "stateMutability": "view",
      "type": "function"
    },
    {
      "inputs": [],
      "name": "firstCandidate",
      "outputs": [
        {
          "internalType": "uint256",
          "name": "",
          "type": "uint256"
        }
      ],
      "stateMutability": "view",
      "type": "function"
    },
    {
      "inputs": [
        {
          "internalType": "uint256",
          "name": "candidateID",
          "type": "uint256"
        }
      ],
      "name": "vote",
      "outputs": [],
      "stateMutability": "nonpayable",
      "type": "function"
    }
  ],
  "bytecode": "0x608060405260006002553480156200001657600080fd5b5060405162000f3738038062000f3783398181016040528101906200003c9190620003f1565b816000815181106200005357620000526200065c565b5b60200260200101516000908051906020019062000072929190620001f4565b50816001815181106200008a57620000896200065c565b5b602002602001015160019080519060200190620000a9929190620001f4565b50604051806060016040528082600081518110620000cc57620000cb6200065c565b5b6020026020010151815260200160008152602001600254815250600360006002548152602001908152602001600020600082015181600001908051906020019062000119929190620001f4565b506020820151816001015560408201518160020155905050600260008154809291906200014690620005b0565b91905055506040518060600160405280826001815181106200016d576200016c6200065c565b5b60200260200101518152602001600081526020016002548152506003600060025481526020019081526020016000206000820151816000019080519060200190620001ba929190620001f4565b50602082015181600101556040820151816002015590505060026000815480929190620001e790620005b0565b91905055505050620006e4565b828054620002029062000544565b90600052602060002090601f01602090048101928262000226576000855562000272565b82601f106200024157805160ff191683800117855562000272565b8280016001018555821562000272579182015b828111156200027157825182559160200191906001019062000254565b5b50905062000281919062000285565b5090565b5b80821115620002a057600081600090555060010162000286565b5090565b6000620002bb620002b5846200049f565b62000476565b90508083825260208201905082856020860282011115620002e157620002e0620006bf565b5b60005b858110156200033657815167ffffffffffffffff8111156200030b576200030a620006ba565b5b8086016200031a8982620003be565b85526020850194506020840193505050600181019050620002e4565b5050509392505050565b6000620003576200035184620004ce565b62000476565b905082815260208101848484011115620003765762000375620006c4565b5b620003838482856200050e565b509392505050565b600082601f830112620003a357620003a2620006ba565b5b8151620003b5848260208601620002a4565b91505092915050565b600082601f830112620003d657620003d5620006ba565b5b8151620003e884826020860162000340565b91505092915050565b600080604083850312156200040b576200040a620006ce565b5b600083015167ffffffffffffffff8111156200042c576200042b620006c9565b5b6200043a858286016200038b565b925050602083015167ffffffffffffffff8111156200045e576200045d620006c9565b5b6200046c858286016200038b565b9150509250929050565b60006200048262000495565b90506200049082826200057a565b919050565b6000604051905090565b600067ffffffffffffffff821115620004bd57620004bc6200068b565b5b602082029050602081019050919050565b600067ffffffffffffffff821115620004ec57620004eb6200068b565b5b620004f782620006d3565b9050602081019050919050565b6000819050919050565b60005b838110156200052e57808201518184015260208101905062000511565b838111156200053e576000848401525b50505050565b600060028204905060018216806200055d57607f821691505b602082108114156200057457620005736200062d565b5b50919050565b6200058582620006d3565b810181811067ffffffffffffffff82111715620005a757620005a66200068b565b5b80604052505050565b6000620005bd8262000504565b91507fffffffffffffffffffffffffffffffffffffffffffffffffffffffffffffffff821415620005f357620005f2620005fe565b5b600182019050919050565b7f4e487b7100000000000000000000000000000000000000000000000000000000600052601160045260246000fd5b7f4e487b7100000000000000000000000000000000000000000000000000000000600052602260045260246000fd5b7f4e487b7100000000000000000000000000000000000000000000000000000000600052603260045260246000fd5b7f4e487b7100000000000000000000000000000000000000000000000000000000600052604160045260246000fd5b600080fd5b600080fd5b600080fd5b600080fd5b600080fd5b6000601f19601f8301169050919050565b61084380620006f46000396000f3fe608060405234801561001057600080fd5b50600436106100625760003560e01c80630121b93f14610067578063290e92121461008357806349a2b603146100b557806385e8e7a7146100d3578063e22e11c9146100f1578063fdedaa8a1461010f575b600080fd5b610081600480360381019061007c91906104b8565b610140565b005b61009d600480360381019061009891906104b8565b61025c565b6040516100ac939291906105aa565b60405180910390f35b6100bd61030e565b6040516100ca9190610588565b60405180910390f35b6100db61039c565b6040516100e89190610588565b60405180910390f35b6100f961042a565b6040516101069190610608565b60405180910390f35b6101296004803603810190610124919061048b565b610430565b60405161013792919061055f565b60405180910390f35b600460003373ffffffffffffffffffffffffffffffffffffffff1673ffffffffffffffffffffffffffffffffffffffff16815260200190815260200160002060000160009054906101000a900460ff16156101d0576040517f08c379a00000000000000000000000000000000000000000000000000000000081526004016101c7906105e8565b60405180910390fd5b6001600460003373ffffffffffffffffffffffffffffffffffffffff1673ffffffffffffffffffffffffffffffffffffffff16815260200190815260200160002060000160006101000a81548160ff0219169083151502179055506001600360008381526020019081526020016000206001016000828254610252919061063f565b9250508190555050565b600360205280600052604060002060009150905080600001805461027f90610710565b80601f01602080910402602001604051908101604052809291908181526020018280546102ab90610710565b80156102f85780601f106102cd576101008083540402835291602001916102f8565b820191906000526020600020905b8154815290600101906020018083116102db57829003601f168201915b5050505050908060010154908060020154905083565b6001805461031b90610710565b80601f016020809104026020016040519081016040528092919081815260200182805461034790610710565b80156103945780601f1061036957610100808354040283529160200191610394565b820191906000526020600020905b81548152906001019060200180831161037757829003601f168201915b505050505081565b600080546103a990610710565b80601f01602080910402602001604051908101604052809291908181526020018280546103d590610710565b80156104225780601f106103f757610100808354040283529160200191610422565b820191906000526020600020905b81548152906001019060200180831161040557829003601f168201915b505050505081565b60025481565b60046020528060005260406000206000915090508060000160009054906101000a900460ff16908060010154905082565b600081359050610470816107df565b92915050565b600081359050610485816107f6565b92915050565b6000602082840312156104a1576104a06107a0565b5b60006104af84828501610461565b91505092915050565b6000602082840312156104ce576104cd6107a0565b5b60006104dc84828501610476565b91505092915050565b6104ee816106a7565b82525050565b60006104ff82610623565b610509818561062e565b93506105198185602086016106dd565b610522816107a5565b840191505092915050565b600061053a601e8361062e565b9150610545826107b6565b602082019050919050565b610559816106d3565b82525050565b600060408201905061057460008301856104e5565b6105816020830184610550565b9392505050565b600060208201905081810360008301526105a281846104f4565b905092915050565b600060608201905081810360008301526105c481866104f4565b90506105d36020830185610550565b6105e06040830184610550565b949350505050565b600060208201905081810360008301526106018161052d565b9050919050565b600060208201905061061d6000830184610550565b92915050565b600081519050919050565b600082825260208201905092915050565b600061064a826106d3565b9150610655836106d3565b9250827fffffffffffffffffffffffffffffffffffffffffffffffffffffffffffffffff0382111561068a57610689610742565b5b828201905092915050565b60006106a0826106b3565b9050919050565b60008115159050919050565b600073ffffffffffffffffffffffffffffffffffffffff82169050919050565b6000819050919050565b60005b838110156106fb5780820151818401526020810190506106e0565b8381111561070a576000848401525b50505050565b6000600282049050600182168061072857607f821691505b6020821081141561073c5761073b610771565b5b50919050565b7f4e487b7100000000000000000000000000000000000000000000000000000000600052601160045260246000fd5b7f4e487b7100000000000000000000000000000000000000000000000000000000600052602260045260246000fd5b600080fd5b6000601f19601f8301169050919050565b7f566f74657220766f74656420666f72207468697320656c656374696f6e210000600082015250565b6107e881610695565b81146107f357600080fd5b50565b6107ff816106d3565b811461080a57600080fd5b5056fea2646970667358221220fd7283a283445124e0745a2a2a2f700278678340b443861a07b43a87d97b781064736f6c63430008070033",
  "immutableReferences": {},
  "source": "// SPDX-License-Identifier: UNLICENSED\r\npragma solidity >=0.7.0 <0.9.0;\r\n\r\ncontract Election{\r\n    string public electionName;\r\n    string public electionDescription;\r\n\r\n    struct Voter{\r\n        bool isVoted;\r\n        uint voterID;\r\n    }\r\n\r\n    struct Candidate{\r\n        string name;\r\n        uint voteCount;\r\n        uint candidateID;\r\n    }\r\n\r\n    uint public firstCandidate = 0;\r\n\r\n    constructor(string[] memory electionAttributes, string[] memory candidateAttributes){\r\n            electionName = electionAttributes[0];\r\n            electionDescription = electionAttributes[1];\r\n\r\n            Candidates[firstCandidate] = Candidate(candidateAttributes[0], 0, firstCandidate);\r\n            firstCandidate++;\r\n            Candidates[firstCandidate] = Candidate(candidateAttributes[1], 0, firstCandidate);\r\n            firstCandidate++;\r\n    }\r\n\r\n    function vote(uint candidateID) public{\r\n        require(!Voters[msg.sender].isVoted, \"Voter voted for this election!\");\r\n        Voters[msg.sender].isVoted = true;\r\n        Candidates[candidateID].voteCount += 1;\r\n    }\r\n\r\n    mapping(uint => Candidate) public Candidates;\r\n    mapping (address => Voter) public Voters;\r\n\r\n\r\n\r\n}",
  "sourcePath": "C:\\Users\\berka\\VoterBlock\\contracts\\Election.sol",
  "compiler": {
    "name": "solc",
    "version": "0.8.7+commit.e28d00a7.Emscripten.clang"
  },
  "schemaVersion": "3.4.7",
  "updatedAt": "2022-06-23T22:03:02.018Z",
  "devdoc": {
    "kind": "dev",
    "methods": {},
    "version": 1
  },
  "userdoc": {
    "kind": "user",
    "methods": {},
    "version": 1
  }
}